{
  "_format": "hh3-artifact-1",
  "contractName": "HardForkPosts",
  "sourceName": "contracts/HardForkPosts.sol",
  "abi": [
    {
      "inputs": [
        {
          "internalType": "address",
          "name": "_treasury",
          "type": "address"
        }
      ],
      "stateMutability": "nonpayable",
      "type": "constructor"
    },
    {
      "inputs": [
        {
          "internalType": "uint256",
          "name": "_postId",
          "type": "uint256"
        },
        {
          "internalType": "string",
          "name": "_text",
          "type": "string"
        }
      ],
      "name": "addComment",
      "outputs": [],
      "stateMutability": "nonpayable",
      "type": "function"
    },
    {
      "inputs": [
        {
          "internalType": "string",
          "name": "_content",
          "type": "string"
        },
        {
          "internalType": "string",
          "name": "_mediaHash",
          "type": "string"
        }
      ],
      "name": "createPost",
      "outputs": [],
      "stateMutability": "nonpayable",
      "type": "function"
    },
    {
      "inputs": [],
      "name": "getAllPosts",
      "outputs": [
        {
          "components": [
            {
              "internalType": "uint256",
              "name": "id",
              "type": "uint256"
            },
            {
              "internalType": "address",
              "name": "author",
              "type": "address"
            },
            {
              "internalType": "string",
              "name": "content",
              "type": "string"
            },
            {
              "internalType": "string",
              "name": "mediaHash",
              "type": "string"
            },
            {
              "internalType": "uint256",
              "name": "totalInvested",
              "type": "uint256"
            },
            {
              "internalType": "uint256",
              "name": "timestamp",
              "type": "uint256"
            },
            {
              "components": [
                {
                  "internalType": "address",
                  "name": "commenter",
                  "type": "address"
                },
                {
                  "internalType": "string",
                  "name": "text",
                  "type": "string"
                },
                {
                  "internalType": "uint256",
                  "name": "timestamp",
                  "type": "uint256"
                }
              ],
              "internalType": "struct HardForkPosts.Comment[]",
              "name": "comments",
              "type": "tuple[]"
            },
            {
              "components": [
                {
                  "internalType": "address",
                  "name": "investor",
                  "type": "address"
                },
                {
                  "internalType": "uint256",
                  "name": "amount",
                  "type": "uint256"
                }
              ],
              "internalType": "struct HardForkPosts.Investment[]",
              "name": "donors",
              "type": "tuple[]"
            }
          ],
          "internalType": "struct HardForkPosts.Post[]",
          "name": "",
          "type": "tuple[]"
        }
      ],
      "stateMutability": "view",
      "type": "function"
    },
    {
      "inputs": [
        {
          "internalType": "uint256",
          "name": "_postId",
          "type": "uint256"
        }
      ],
      "name": "getPost",
      "outputs": [
        {
          "components": [
            {
              "internalType": "uint256",
              "name": "id",
              "type": "uint256"
            },
            {
              "internalType": "address",
              "name": "author",
              "type": "address"
            },
            {
              "internalType": "string",
              "name": "content",
              "type": "string"
            },
            {
              "internalType": "string",
              "name": "mediaHash",
              "type": "string"
            },
            {
              "internalType": "uint256",
              "name": "totalInvested",
              "type": "uint256"
            },
            {
              "internalType": "uint256",
              "name": "timestamp",
              "type": "uint256"
            },
            {
              "components": [
                {
                  "internalType": "address",
                  "name": "commenter",
                  "type": "address"
                },
                {
                  "internalType": "string",
                  "name": "text",
                  "type": "string"
                },
                {
                  "internalType": "uint256",
                  "name": "timestamp",
                  "type": "uint256"
                }
              ],
              "internalType": "struct HardForkPosts.Comment[]",
              "name": "comments",
              "type": "tuple[]"
            },
            {
              "components": [
                {
                  "internalType": "address",
                  "name": "investor",
                  "type": "address"
                },
                {
                  "internalType": "uint256",
                  "name": "amount",
                  "type": "uint256"
                }
              ],
              "internalType": "struct HardForkPosts.Investment[]",
              "name": "donors",
              "type": "tuple[]"
            }
          ],
          "internalType": "struct HardForkPosts.Post",
          "name": "",
          "type": "tuple"
        }
      ],
      "stateMutability": "view",
      "type": "function"
    },
    {
      "inputs": [
        {
          "internalType": "uint256",
          "name": "_postId",
          "type": "uint256"
        }
      ],
      "name": "invest",
      "outputs": [],
      "stateMutability": "payable",
      "type": "function"
    },
    {
      "inputs": [],
      "name": "postCount",
      "outputs": [
        {
          "internalType": "uint256",
          "name": "",
          "type": "uint256"
        }
      ],
      "stateMutability": "view",
      "type": "function"
    },
    {
      "inputs": [
        {
          "internalType": "uint256",
          "name": "",
          "type": "uint256"
        }
      ],
      "name": "posts",
      "outputs": [
        {
          "internalType": "uint256",
          "name": "id",
          "type": "uint256"
        },
        {
          "internalType": "address",
          "name": "author",
          "type": "address"
        },
        {
          "internalType": "string",
          "name": "content",
          "type": "string"
        },
        {
          "internalType": "string",
          "name": "mediaHash",
          "type": "string"
        },
        {
          "internalType": "uint256",
          "name": "totalInvested",
          "type": "uint256"
        },
        {
          "internalType": "uint256",
          "name": "timestamp",
          "type": "uint256"
        }
      ],
      "stateMutability": "view",
      "type": "function"
    },
    {
      "inputs": [],
      "name": "treasury",
      "outputs": [
        {
          "internalType": "address",
          "name": "",
          "type": "address"
        }
      ],
      "stateMutability": "view",
      "type": "function"
    }
  ],
  "bytecode": "0x608060405234801561000f575f5ffd5b506040516120b63803806120b6833981810160405281019061003191906100d4565b805f5f6101000a81548173ffffffffffffffffffffffffffffffffffffffff021916908373ffffffffffffffffffffffffffffffffffffffff160217905550506100ff565b5f5ffd5b5f73ffffffffffffffffffffffffffffffffffffffff82169050919050565b5f6100a38261007a565b9050919050565b6100b381610099565b81146100bd575f5ffd5b50565b5f815190506100ce816100aa565b92915050565b5f602082840312156100e9576100e8610076565b5b5f6100f6848285016100c0565b91505092915050565b611faa8061010c5f395ff3fe60806040526004361061007a575f3560e01c8063392338f51161004d578063392338f51461012f57806340731c241461015757806361d027b314610193578063aa7e5683146101bd5761007a565b80630b1e7f831461007e57806317906c2e146100bf5780632afcf480146100e95780633056110014610105575b5f5ffd5b348015610089575f5ffd5b506100a4600480360381019061009f91906110dc565b6101e5565b6040516100b6969594939291906111c5565b60405180910390f35b3480156100ca575f5ffd5b506100d3610348565b6040516100e09190611232565b60405180910390f35b61010360048036038101906100fe91906110dc565b61034e565b005b348015610110575f5ffd5b50610119610629565b604051610126919061160b565b60405180910390f35b34801561013a575f5ffd5b5061015560048036038101906101509190611757565b610a8b565b005b348015610162575f5ffd5b5061017d600480360381019061017891906110dc565b610b36565b60405161018a919061188f565b60405180910390f35b34801561019e575f5ffd5b506101a7610ef8565b6040516101b491906118af565b60405180910390f35b3480156101c8575f5ffd5b506101e360048036038101906101de91906118c8565b610f1c565b005b6001602052805f5260405f205f91509050805f015490806001015f9054906101000a900473ffffffffffffffffffffffffffffffffffffffff169080600201805461022f9061194f565b80601f016020809104026020016040519081016040528092919081815260200182805461025b9061194f565b80156102a65780601f1061027d576101008083540402835291602001916102a6565b820191905f5260205f20905b81548152906001019060200180831161028957829003601f168201915b5050505050908060030180546102bb9061194f565b80601f01602080910402602001604051908101604052809291908181526020018280546102e79061194f565b80156103325780601f1061030957610100808354040283529160200191610332565b820191905f5260205f20905b81548152906001019060200180831161031557829003601f168201915b5050505050908060040154908060050154905086565b60025481565b5f3411610390576040517f08c379a0000000000000000000000000000000000000000000000000000000008152600401610387906119c9565b60405180910390fd5b5f60015f8381526020019081526020015f2090505f6064605f346103b49190611a14565b6103be9190611a82565b90505f81346103cd9190611ab2565b90505f836001015f9054906101000a900473ffffffffffffffffffffffffffffffffffffffff1673ffffffffffffffffffffffffffffffffffffffff168360405161041790611b12565b5f6040518083038185875af1925050503d805f8114610451576040519150601f19603f3d011682016040523d82523d5f602084013e610456565b606091505b505090508061049a576040517f08c379a000000000000000000000000000000000000000000000000000000000815260040161049190611b70565b60405180910390fd5b5f5f5f9054906101000a900473ffffffffffffffffffffffffffffffffffffffff1673ffffffffffffffffffffffffffffffffffffffff16836040516104df90611b12565b5f6040518083038185875af1925050503d805f8114610519576040519150601f19603f3d011682016040523d82523d5f602084013e61051e565b606091505b5050905080610562576040517f08c379a000000000000000000000000000000000000000000000000000000000815260040161055990611bd8565b60405180910390fd5b34856004015f8282546105759190611bf6565b925050819055508460070160405180604001604052803373ffffffffffffffffffffffffffffffffffffffff16815260200134815250908060018154018082558091505060019003905f5260205f2090600202015f909190919091505f820151815f015f6101000a81548173ffffffffffffffffffffffffffffffffffffffff021916908373ffffffffffffffffffffffffffffffffffffffff160217905550602082015181600101555050505050505050565b60605f60025467ffffffffffffffff81111561064857610647611633565b5b60405190808252806020026020018201604052801561068157816020015b61066e611041565b8152602001906001900390816106665790505b5090505f600190505b6002548111610a835760015f8281526020019081526020015f20604051806101000160405290815f8201548152602001600182015f9054906101000a900473ffffffffffffffffffffffffffffffffffffffff1673ffffffffffffffffffffffffffffffffffffffff1673ffffffffffffffffffffffffffffffffffffffff16815260200160028201805461071e9061194f565b80601f016020809104026020016040519081016040528092919081815260200182805461074a9061194f565b80156107955780601f1061076c57610100808354040283529160200191610795565b820191905f5260205f20905b81548152906001019060200180831161077857829003601f168201915b505050505081526020016003820180546107ae9061194f565b80601f01602080910402602001604051908101604052809291908181526020018280546107da9061194f565b80156108255780601f106107fc57610100808354040283529160200191610825565b820191905f5260205f20905b81548152906001019060200180831161080857829003601f168201915b50505050508152602001600482015481526020016005820154815260200160068201805480602002602001604051908101604052809291908181526020015f905b82821015610984578382905f5260205f2090600302016040518060600160405290815f82015f9054906101000a900473ffffffffffffffffffffffffffffffffffffffff1673ffffffffffffffffffffffffffffffffffffffff1673ffffffffffffffffffffffffffffffffffffffff1681526020016001820180546108eb9061194f565b80601f01602080910402602001604051908101604052809291908181526020018280546109179061194f565b80156109625780601f1061093957610100808354040283529160200191610962565b820191905f5260205f20905b81548152906001019060200180831161094557829003601f168201915b5050505050815260200160028201548152505081526020019060010190610866565b50505050815260200160078201805480602002602001604051908101604052809291908181526020015f905b82821015610a3e578382905f5260205f2090600202016040518060400160405290815f82015f9054906101000a900473ffffffffffffffffffffffffffffffffffffffff1673ffffffffffffffffffffffffffffffffffffffff1673ffffffffffffffffffffffffffffffffffffffff168152602001600182015481525050815260200190600101906109b0565b505050508152505082600183610a549190611ab2565b81518110610a6557610a64611c29565b5b60200260200101819052508080610a7b90611c56565b91505061068a565b508091505090565b60025f815480929190610a9d90611c56565b91905055505f60015f60025481526020019081526020015f209050600254815f018190555033816001015f6101000a81548173ffffffffffffffffffffffffffffffffffffffff021916908373ffffffffffffffffffffffffffffffffffffffff16021790555082816002019081610b159190611e3d565b5081816003019081610b279190611e3d565b50428160050181905550505050565b610b3e611041565b60015f8381526020019081526020015f20604051806101000160405290815f8201548152602001600182015f9054906101000a900473ffffffffffffffffffffffffffffffffffffffff1673ffffffffffffffffffffffffffffffffffffffff1673ffffffffffffffffffffffffffffffffffffffff168152602001600282018054610bc99061194f565b80601f0160208091040260200160405190810160405280929190818152602001828054610bf59061194f565b8015610c405780601f10610c1757610100808354040283529160200191610c40565b820191905f5260205f20905b815481529060010190602001808311610c2357829003601f168201915b50505050508152602001600382018054610c599061194f565b80601f0160208091040260200160405190810160405280929190818152602001828054610c859061194f565b8015610cd05780601f10610ca757610100808354040283529160200191610cd0565b820191905f5260205f20905b815481529060010190602001808311610cb357829003601f168201915b50505050508152602001600482015481526020016005820154815260200160068201805480602002602001604051908101604052809291908181526020015f905b82821015610e2f578382905f5260205f2090600302016040518060600160405290815f82015f9054906101000a900473ffffffffffffffffffffffffffffffffffffffff1673ffffffffffffffffffffffffffffffffffffffff1673ffffffffffffffffffffffffffffffffffffffff168152602001600182018054610d969061194f565b80601f0160208091040260200160405190810160405280929190818152602001828054610dc29061194f565b8015610e0d5780601f10610de457610100808354040283529160200191610e0d565b820191905f5260205f20905b815481529060010190602001808311610df057829003601f168201915b5050505050815260200160028201548152505081526020019060010190610d11565b50505050815260200160078201805480602002602001604051908101604052809291908181526020015f905b82821015610ee9578382905f5260205f2090600202016040518060400160405290815f82015f9054906101000a900473ffffffffffffffffffffffffffffffffffffffff1673ffffffffffffffffffffffffffffffffffffffff1673ffffffffffffffffffffffffffffffffffffffff16815260200160018201548152505081526020019060010190610e5b565b50505050815250509050919050565b5f5f9054906101000a900473ffffffffffffffffffffffffffffffffffffffff1681565b5f82118015610f2d57506002548211155b610f6c576040517f08c379a0000000000000000000000000000000000000000000000000000000008152600401610f6390611f56565b60405180910390fd5b60015f8381526020019081526020015f2060060160405180606001604052803373ffffffffffffffffffffffffffffffffffffffff16815260200183815260200142815250908060018154018082558091505060019003905f5260205f2090600302015f909190919091505f820151815f015f6101000a81548173ffffffffffffffffffffffffffffffffffffffff021916908373ffffffffffffffffffffffffffffffffffffffff16021790555060208201518160010190816110309190611e3d565b506040820151816002015550505050565b6040518061010001604052805f81526020015f73ffffffffffffffffffffffffffffffffffffffff16815260200160608152602001606081526020015f81526020015f815260200160608152602001606081525090565b5f604051905090565b5f5ffd5b5f5ffd5b5f819050919050565b6110bb816110a9565b81146110c5575f5ffd5b50565b5f813590506110d6816110b2565b92915050565b5f602082840312156110f1576110f06110a1565b5b5f6110fe848285016110c8565b91505092915050565b611110816110a9565b82525050565b5f73ffffffffffffffffffffffffffffffffffffffff82169050919050565b5f61113f82611116565b9050919050565b61114f81611135565b82525050565b5f81519050919050565b5f82825260208201905092915050565b8281835e5f83830152505050565b5f601f19601f8301169050919050565b5f61119782611155565b6111a1818561115f565b93506111b181856020860161116f565b6111ba8161117d565b840191505092915050565b5f60c0820190506111d85f830189611107565b6111e56020830188611146565b81810360408301526111f7818761118d565b9050818103606083015261120b818661118d565b905061121a6080830185611107565b61122760a0830184611107565b979650505050505050565b5f6020820190506112455f830184611107565b92915050565b5f81519050919050565b5f82825260208201905092915050565b5f819050602082019050919050565b61127d816110a9565b82525050565b61128c81611135565b82525050565b5f82825260208201905092915050565b5f6112ac82611155565b6112b68185611292565b93506112c681856020860161116f565b6112cf8161117d565b840191505092915050565b5f81519050919050565b5f82825260208201905092915050565b5f819050602082019050919050565b5f606083015f8301516113185f860182611283565b506020830151848203602086015261133082826112a2565b91505060408301516113456040860182611274565b508091505092915050565b5f61135b8383611303565b905092915050565b5f602082019050919050565b5f611379826112da565b61138381856112e4565b935083602082028501611395856112f4565b805f5b858110156113d057848403895281516113b18582611350565b94506113bc83611363565b925060208a01995050600181019050611398565b50829750879550505050505092915050565b5f81519050919050565b5f82825260208201905092915050565b5f819050602082019050919050565b604082015f82015161141f5f850182611283565b5060208201516114326020850182611274565b50505050565b5f611443838361140b565b60408301905092915050565b5f602082019050919050565b5f611465826113e2565b61146f81856113ec565b935061147a836113fc565b805f5b838110156114aa5781516114918882611438565b975061149c8361144f565b92505060018101905061147d565b5085935050505092915050565b5f61010083015f8301516114cd5f860182611274565b5060208301516114e06020860182611283565b50604083015184820360408601526114f882826112a2565b9150506060830151848203606086015261151282826112a2565b91505060808301516115276080860182611274565b5060a083015161153a60a0860182611274565b5060c083015184820360c0860152611552828261136f565b91505060e083015184820360e086015261156c828261145b565b9150508091505092915050565b5f61158483836114b7565b905092915050565b5f602082019050919050565b5f6115a28261124b565b6115ac8185611255565b9350836020820285016115be85611265565b805f5b858110156115f957848403895281516115da8582611579565b94506115e58361158c565b925060208a019950506001810190506115c1565b50829750879550505050505092915050565b5f6020820190508181035f8301526116238184611598565b905092915050565b5f5ffd5b5f5ffd5b7f4e487b71000000000000000000000000000000000000000000000000000000005f52604160045260245ffd5b6116698261117d565b810181811067ffffffffffffffff8211171561168857611687611633565b5b80604052505050565b5f61169a611098565b90506116a68282611660565b919050565b5f67ffffffffffffffff8211156116c5576116c4611633565b5b6116ce8261117d565b9050602081019050919050565b828183375f83830152505050565b5f6116fb6116f6846116ab565b611691565b9050828152602081018484840111156117175761171661162f565b5b6117228482856116db565b509392505050565b5f82601f83011261173e5761173d61162b565b5b813561174e8482602086016116e9565b91505092915050565b5f5f6040838503121561176d5761176c6110a1565b5b5f83013567ffffffffffffffff81111561178a576117896110a5565b5b6117968582860161172a565b925050602083013567ffffffffffffffff8111156117b7576117b66110a5565b5b6117c38582860161172a565b9150509250929050565b5f61010083015f8301516117e35f860182611274565b5060208301516117f66020860182611283565b506040830151848203604086015261180e82826112a2565b9150506060830151848203606086015261182882826112a2565b915050608083015161183d6080860182611274565b5060a083015161185060a0860182611274565b5060c083015184820360c0860152611868828261136f565b91505060e083015184820360e0860152611882828261145b565b9150508091505092915050565b5f6020820190508181035f8301526118a781846117cd565b905092915050565b5f6020820190506118c25f830184611146565b92915050565b5f5f604083850312156118de576118dd6110a1565b5b5f6118eb858286016110c8565b925050602083013567ffffffffffffffff81111561190c5761190b6110a5565b5b6119188582860161172a565b9150509250929050565b7f4e487b71000000000000000000000000000000000000000000000000000000005f52602260045260245ffd5b5f600282049050600182168061196657607f821691505b60208210810361197957611978611922565b5b50919050565b7f4d75737420696e76657374206d6f7265207468616e20300000000000000000005f82015250565b5f6119b360178361115f565b91506119be8261197f565b602082019050919050565b5f6020820190508181035f8301526119e0816119a7565b9050919050565b7f4e487b71000000000000000000000000000000000000000000000000000000005f52601160045260245ffd5b5f611a1e826110a9565b9150611a29836110a9565b9250828202611a37816110a9565b91508282048414831517611a4e57611a4d6119e7565b5b5092915050565b7f4e487b71000000000000000000000000000000000000000000000000000000005f52601260045260245ffd5b5f611a8c826110a9565b9150611a97836110a9565b925082611aa757611aa6611a55565b5b828204905092915050565b5f611abc826110a9565b9150611ac7836110a9565b9250828203905081811115611adf57611ade6119e7565b5b92915050565b5f81905092915050565b50565b5f611afd5f83611ae5565b9150611b0882611aef565b5f82019050919050565b5f611b1c82611af2565b9150819050919050565b7f43726561746f7220706179206661696c656400000000000000000000000000005f82015250565b5f611b5a60128361115f565b9150611b6582611b26565b602082019050919050565b5f6020820190508181035f830152611b8781611b4e565b9050919050565b7f547265617375727920706179206661696c6564000000000000000000000000005f82015250565b5f611bc260138361115f565b9150611bcd82611b8e565b602082019050919050565b5f6020820190508181035f830152611bef81611bb6565b9050919050565b5f611c00826110a9565b9150611c0b836110a9565b9250828201905080821115611c2357611c226119e7565b5b92915050565b7f4e487b71000000000000000000000000000000000000000000000000000000005f52603260045260245ffd5b5f611c60826110a9565b91507fffffffffffffffffffffffffffffffffffffffffffffffffffffffffffffffff8203611c9257611c916119e7565b5b600182019050919050565b5f819050815f5260205f209050919050565b5f6020601f8301049050919050565b5f82821b905092915050565b5f60088302611cf97fffffffffffffffffffffffffffffffffffffffffffffffffffffffffffffffff82611cbe565b611d038683611cbe565b95508019841693508086168417925050509392505050565b5f819050919050565b5f611d3e611d39611d34846110a9565b611d1b565b6110a9565b9050919050565b5f819050919050565b611d5783611d24565b611d6b611d6382611d45565b848454611cca565b825550505050565b5f5f905090565b611d82611d73565b611d8d818484611d4e565b505050565b5b81811015611db057611da55f82611d7a565b600181019050611d93565b5050565b601f821115611df557611dc681611c9d565b611dcf84611caf565b81016020851015611dde578190505b611df2611dea85611caf565b830182611d92565b50505b505050565b5f82821c905092915050565b5f611e155f1984600802611dfa565b1980831691505092915050565b5f611e2d8383611e06565b9150826002028217905092915050565b611e4682611155565b67ffffffffffffffff811115611e5f57611e5e611633565b5b611e69825461194f565b611e74828285611db4565b5f60209050601f831160018114611ea5575f8415611e93578287015190505b611e9d8582611e22565b865550611f04565b601f198416611eb386611c9d565b5f5b82811015611eda57848901518255600182019150602085019450602081019050611eb5565b86831015611ef75784890151611ef3601f891682611e06565b8355505b6001600288020188555050505b505050505050565b7f506f737420646f65736e277420657869737400000000000000000000000000005f82015250565b5f611f4060128361115f565b9150611f4b82611f0c565b602082019050919050565b5f6020820190508181035f830152611f6d81611f34565b905091905056fea2646970667358221220a2d6950fb9feea13b7b2f8064b5e7f6751136d73621dfef523abd4a1a31930a264736f6c634300081c0033",
  "linkReferences": {},
  "deployedLinkReferences": {},
  "immutableReferences": {},
  "inputSourceName": "project/contracts/HardForkPosts.sol",
  "buildInfoId": "solc-0_8_28-cecd4be6b7aebdd5929eadf61624be59610db6ca"
}